{
  "_format": "hh-sol-artifact-1",
  "contractName": "Tribes",
  "sourceName": "contracts/Tribes.sol",
  "abi": [
    {
      "inputs": [],
      "stateMutability": "nonpayable",
      "type": "constructor"
    },
    {
      "anonymous": false,
      "inputs": [
        {
          "indexed": false,
          "internalType": "uint256",
          "name": "tribeId",
          "type": "uint256"
        },
        {
          "indexed": false,
          "internalType": "address",
          "name": "newMember",
          "type": "address"
        }
      ],
      "name": "JoinedTribe",
      "type": "event"
    },
    {
      "anonymous": false,
      "inputs": [
        {
          "indexed": false,
          "internalType": "uint256",
          "name": "tribeId",
          "type": "uint256"
        },
        {
          "indexed": false,
          "internalType": "address",
          "name": "member",
          "type": "address"
        }
      ],
      "name": "LeftTribe",
      "type": "event"
    },
    {
      "anonymous": false,
      "inputs": [
        {
          "indexed": false,
          "internalType": "string",
          "name": "metadata",
          "type": "string"
        }
      ],
      "name": "NewTribeCreated",
      "type": "event"
    },
    {
      "inputs": [
        {
          "internalType": "string",
          "name": "metadata",
          "type": "string"
        }
      ],
      "name": "addNewTribe",
      "outputs": [],
      "stateMutability": "nonpayable",
      "type": "function"
    },
    {
      "inputs": [],
      "name": "createInstance",
      "outputs": [],
      "stateMutability": "nonpayable",
      "type": "function"
    },
    {
      "inputs": [
        {
          "internalType": "address",
          "name": "tenant",
          "type": "address"
        },
        {
          "internalType": "uint256",
          "name": "tribeId",
          "type": "uint256"
        }
      ],
      "name": "getTribeData",
      "outputs": [
        {
          "internalType": "string",
          "name": "",
          "type": "string"
        }
      ],
      "stateMutability": "view",
      "type": "function"
    },
    {
      "inputs": [
        {
          "internalType": "address",
          "name": "tenant",
          "type": "address"
        },
        {
          "internalType": "address",
          "name": "user",
          "type": "address"
        }
      ],
      "name": "getUserTribe",
      "outputs": [
        {
          "internalType": "uint256",
          "name": "",
          "type": "uint256"
        }
      ],
      "stateMutability": "view",
      "type": "function"
    },
    {
      "inputs": [
        {
          "internalType": "address",
          "name": "tenant",
          "type": "address"
        },
        {
          "internalType": "uint256",
          "name": "tribeId",
          "type": "uint256"
        }
      ],
      "name": "joinTribe",
      "outputs": [],
      "stateMutability": "nonpayable",
      "type": "function"
    },
    {
      "inputs": [
        {
          "internalType": "address",
          "name": "tenant",
          "type": "address"
        }
      ],
      "name": "leaveTribe",
      "outputs": [],
      "stateMutability": "nonpayable",
      "type": "function"
    },
    {
      "inputs": [],
      "name": "metadata",
      "outputs": [
        {
          "internalType": "bytes",
          "name": "title",
          "type": "bytes"
        },
        {
          "components": [
            {
              "internalType": "address",
              "name": "authorAddress",
              "type": "address"
            },
            {
              "internalType": "string",
              "name": "externalLink",
              "type": "string"
            }
          ],
          "internalType": "struct IHyperverseModule.Author",
          "name": "author",
          "type": "tuple"
        },
        {
          "internalType": "bytes",
          "name": "version",
          "type": "bytes"
        },
        {
          "internalType": "uint64",
          "name": "publishedAt",
          "type": "uint64"
        },
        {
          "internalType": "bytes",
          "name": "externalLink",
          "type": "bytes"
        }
      ],
      "stateMutability": "view",
      "type": "function"
    },
    {
      "inputs": [
        {
          "internalType": "address",
          "name": "tenant",
          "type": "address"
        }
      ],
      "name": "totalTribes",
      "outputs": [
        {
          "internalType": "uint256",
          "name": "",
          "type": "uint256"
        }
      ],
      "stateMutability": "view",
      "type": "function"
    }
  ],
  "bytecode": "0x60806040523480156200001157600080fd5b506040518060a001604052806040518060400160405280600681526020017f547269626573000000000000000000000000000000000000000000000000000081525081526020016040518060400160405280735b38da6a701c568545dcfcb03fcb875f56beddc473ffffffffffffffffffffffffffffffffffffffff1681526020016040518060400160405280601881526020017f68747470733a2f2f65787465726e616c6c696e6b2e6e6574000000000000000081525081525081526020016040518060400160405280600581526020017f302e302e31000000000000000000000000000000000000000000000000000000815250815260200165032a361e860667ffffffffffffffff1681526020016040518060400160405280601881526020017f68747470733a2f2f65787465726e616c4c696e6b2e6e657400000000000000008152508152506000808201518160000190805190602001906200017a929190620002b7565b5060208201518160010160008201518160000160006101000a81548173ffffffffffffffffffffffffffffffffffffffff021916908373ffffffffffffffffffffffffffffffffffffffff1602179055506020820151816001019080519060200190620001e992919062000348565b50505060408201518160030190805190602001906200020a929190620002b7565b5060608201518160040160006101000a81548167ffffffffffffffff021916908367ffffffffffffffff160217905550608082015181600501908051906020019062000258929190620002b7565b50905050735b38da6a701c568545dcfcb03fcb875f56beddc4600760006101000a81548173ffffffffffffffffffffffffffffffffffffffff021916908373ffffffffffffffffffffffffffffffffffffffff1602179055506200045d565b828054620002c590620003f8565b90600052602060002090601f016020900481019282620002e9576000855562000335565b82601f106200030457805160ff191683800117855562000335565b8280016001018555821562000335579182015b828111156200033457825182559160200191906001019062000317565b5b509050620003449190620003d9565b5090565b8280546200035690620003f8565b90600052602060002090601f0160209004810192826200037a5760008555620003c6565b82601f106200039557805160ff1916838001178555620003c6565b82800160010185558215620003c6579182015b82811115620003c5578251825591602001919060010190620003a8565b5b509050620003d59190620003d9565b5090565b5b80821115620003f4576000816000905550600101620003da565b5090565b600060028204905060018216806200041157607f821691505b602082108114156200042857620004276200042e565b5b50919050565b7f4e487b7100000000000000000000000000000000000000000000000000000000600052602260045260246000fd5b6116a4806200046d6000396000f3fe608060405234801561001057600080fd5b50600436106100885760003560e01c80636d019c921161005b5780636d019c9214610117578063aae9f25914610133578063ad50146714610163578063be51f4f81461016d57610088565b806316d247101461008d5780633269c74e146100a957806333d03bcc146100c5578063392f37e9146100f5575b600080fd5b6100a760048036038101906100a29190610ea6565b61019d565b005b6100c360048036038101906100be9190610e41565b610396565b005b6100df60048036038101906100da9190610e41565b6105c4565b6040516100ec9190611227565b60405180910390f35b6100fd6105e1565b60405161010e9594939291906110f6565b60405180910390f35b610131600480360381019061012c9190610ee2565b6108a3565b005b61014d60048036038101906101489190610e6a565b6109d0565b60405161015a9190611227565b60405180910390f35b61016b610ab4565b005b61018760048036038101906101829190610ea6565b610be1565b6040516101949190611165565b60405180910390f35b600033905060006101ad84610ca0565b905060008160010160008473ffffffffffffffffffffffffffffffffffffffff1673ffffffffffffffffffffffffffffffffffffffff1681526020019081526020016000205414610233576040517f08c379a000000000000000000000000000000000000000000000000000000000815260040161022a90611187565b60405180910390fd5b8261024082600201610ce8565b1015610281576040517f08c379a0000000000000000000000000000000000000000000000000000000008152600401610278906111e7565b60405180910390fd5b828160010160008473ffffffffffffffffffffffffffffffffffffffff1673ffffffffffffffffffffffffffffffffffffffff168152602001908152602001600020819055506000816000016000858152602001908152602001600020905060018160010160008573ffffffffffffffffffffffffffffffffffffffff1673ffffffffffffffffffffffffffffffffffffffff16815260200190815260200160002060006101000a81548160ff021916908315150217905550600181600201600082825461034f919061130a565b925050819055507f8e0fdde8512c413931ab05e9ae74b54525259ce920b11c355705e510829841db8484604051610387929190611242565b60405180910390a15050505050565b600033905060006103a683610ca0565b905060008160010160008473ffffffffffffffffffffffffffffffffffffffff1673ffffffffffffffffffffffffffffffffffffffff16815260200190815260200160002054141561042d576040517f08c379a0000000000000000000000000000000000000000000000000000000008152600401610424906111a7565b60405180910390fd5b60008160000160008360010160008673ffffffffffffffffffffffffffffffffffffffff1673ffffffffffffffffffffffffffffffffffffffff168152602001908152602001600020548152602001908152602001600020905060008260010160008573ffffffffffffffffffffffffffffffffffffffff1673ffffffffffffffffffffffffffffffffffffffff1681526020019081526020016000208190555060008160010160008573ffffffffffffffffffffffffffffffffffffffff1673ffffffffffffffffffffffffffffffffffffffff16815260200190815260200160002060006101000a81548160ff021916908315150217905550600181600201600082825461053d9190611360565b925050819055507fbeae83c5a8a13a5d2a71926ba1055d7a1d9de899e96f7244654799627236644d8260010160008573ffffffffffffffffffffffffffffffffffffffff1673ffffffffffffffffffffffffffffffffffffffff16815260200190815260200160002054846040516105b6929190611242565b60405180910390a150505050565b60006105da6105d283610ca0565b600201610ce8565b9050919050565b60008060000180546105f290611426565b80601f016020809104026020016040519081016040528092919081815260200182805461061e90611426565b801561066b5780601f106106405761010080835404028352916020019161066b565b820191906000526020600020905b81548152906001019060200180831161064e57829003601f168201915b505050505090806001016040518060400160405290816000820160009054906101000a900473ffffffffffffffffffffffffffffffffffffffff1673ffffffffffffffffffffffffffffffffffffffff1673ffffffffffffffffffffffffffffffffffffffff1681526020016001820180546106e690611426565b80601f016020809104026020016040519081016040528092919081815260200182805461071290611426565b801561075f5780601f106107345761010080835404028352916020019161075f565b820191906000526020600020905b81548152906001019060200180831161074257829003601f168201915b5050505050815250509080600301805461077890611426565b80601f01602080910402602001604051908101604052809291908181526020018280546107a490611426565b80156107f15780601f106107c6576101008083540402835291602001916107f1565b820191906000526020600020905b8154815290600101906020018083116107d457829003601f168201915b5050505050908060040160009054906101000a900467ffffffffffffffff169080600501805461082090611426565b80601f016020809104026020016040519081016040528092919081815260200182805461084c90611426565b80156108995780601f1061086e57610100808354040283529160200191610899565b820191906000526020600020905b81548152906001019060200180831161087c57829003601f168201915b5050505050905085565b600960003373ffffffffffffffffffffffffffffffffffffffff1673ffffffffffffffffffffffffffffffffffffffff16815260200190815260200160002060009054906101000a900460ff1661092f576040517f08c379a000000000000000000000000000000000000000000000000000000000815260040161092690611207565b60405180910390fd5b600061093a33610ca0565b905061094881600201610cf6565b600061095682600201610ce8565b90506000826000016000838152602001908152602001600020905083816000019080519060200190610989929190610d0c565b508181600301819055507f2d06fe5eff482a0b08e70bd38f111a1a397e6952391bdc714df3eacb735b354c846040516109c29190611165565b60405180910390a150505050565b6000806109dc84610ca0565b905060008160010160008573ffffffffffffffffffffffffffffffffffffffff1673ffffffffffffffffffffffffffffffffffffffff168152602001908152602001600020541415610a63576040517f08c379a0000000000000000000000000000000000000000000000000000000008152600401610a5a906111a7565b60405180910390fd5b60008160010160008573ffffffffffffffffffffffffffffffffffffffff1673ffffffffffffffffffffffffffffffffffffffff168152602001908152602001600020549050809250505092915050565b60001515600960003373ffffffffffffffffffffffffffffffffffffffff1673ffffffffffffffffffffffffffffffffffffffff16815260200190815260200160002060009054906101000a900460ff16151514610b47576040517f08c379a0000000000000000000000000000000000000000000000000000000008152600401610b3e906111c7565b60405180910390fd5b600860003373ffffffffffffffffffffffffffffffffffffffff1673ffffffffffffffffffffffffffffffffffffffff168152602001908152602001600020506001600960003373ffffffffffffffffffffffffffffffffffffffff1673ffffffffffffffffffffffffffffffffffffffff16815260200190815260200160002060006101000a81548160ff021916908315150217905550565b60606000610bee84610ca0565b905060008160000160008581526020019081526020016000209050806000018054610c1890611426565b80601f0160208091040260200160405190810160405280929190818152602001828054610c4490611426565b8015610c915780601f10610c6657610100808354040283529160200191610c91565b820191906000526020600020905b815481529060010190602001808311610c7457829003601f168201915b50505050509250505092915050565b6000600860008373ffffffffffffffffffffffffffffffffffffffff1673ffffffffffffffffffffffffffffffffffffffff1681526020019081526020016000209050919050565b600081600001549050919050565b6001816000016000828254019250508190555050565b828054610d1890611426565b90600052602060002090601f016020900481019282610d3a5760008555610d81565b82601f10610d5357805160ff1916838001178555610d81565b82800160010185558215610d81579182015b82811115610d80578251825591602001919060010190610d65565b5b509050610d8e9190610d92565b5090565b5b80821115610dab576000816000905550600101610d93565b5090565b6000610dc2610dbd84611290565b61126b565b905082815260208101848484011115610dda57600080fd5b610de58482856113e4565b509392505050565b600081359050610dfc81611640565b92915050565b600082601f830112610e1357600080fd5b8135610e23848260208601610daf565b91505092915050565b600081359050610e3b81611657565b92915050565b600060208284031215610e5357600080fd5b6000610e6184828501610ded565b91505092915050565b60008060408385031215610e7d57600080fd5b6000610e8b85828601610ded565b9250506020610e9c85828601610ded565b9150509250929050565b60008060408385031215610eb957600080fd5b6000610ec785828601610ded565b9250506020610ed885828601610e2c565b9150509250929050565b600060208284031215610ef457600080fd5b600082013567ffffffffffffffff811115610f0e57600080fd5b610f1a84828501610e02565b91505092915050565b610f2c81611394565b82525050565b610f3b81611394565b82525050565b6000610f4c826112c1565b610f5681856112d7565b9350610f668185602086016113f3565b610f6f81611516565b840191505092915050565b6000610f85826112cc565b610f8f81856112e8565b9350610f9f8185602086016113f3565b610fa881611516565b840191505092915050565b6000610fbe826112cc565b610fc881856112f9565b9350610fd88185602086016113f3565b610fe181611516565b840191505092915050565b6000610ff96022836112f9565b915061100482611527565b604082019050919050565b600061101c601e836112f9565b915061102782611576565b602082019050919050565b600061103f601c836112f9565b915061104a8261159f565b602082019050919050565b60006110626014836112f9565b915061106d826115c8565b602082019050919050565b60006110856021836112f9565b9150611090826115f1565b604082019050919050565b60006040830160008301516110b36000860182610f23565b50602083015184820360208601526110cb8282610f7a565b9150508091505092915050565b6110e1816113c6565b82525050565b6110f0816113d0565b82525050565b600060a08201905081810360008301526111108188610f41565b90508181036020830152611124818761109b565b905081810360408301526111388186610f41565b905061114760608301856110e7565b81810360808301526111598184610f41565b90509695505050505050565b6000602082019050818103600083015261117f8184610fb3565b905092915050565b600060208201905081810360008301526111a081610fec565b9050919050565b600060208201905081810360008301526111c08161100f565b9050919050565b600060208201905081810360008301526111e081611032565b9050919050565b6000602082019050818103600083015261120081611055565b9050919050565b6000602082019050818103600083015261122081611078565b9050919050565b600060208201905061123c60008301846110d8565b92915050565b600060408201905061125760008301856110d8565b6112646020830184610f32565b9392505050565b6000611275611286565b90506112818282611458565b919050565b6000604051905090565b600067ffffffffffffffff8211156112ab576112aa6114e7565b5b6112b482611516565b9050602081019050919050565b600081519050919050565b600081519050919050565b600082825260208201905092915050565b600082825260208201905092915050565b600082825260208201905092915050565b6000611315826113c6565b9150611320836113c6565b9250827fffffffffffffffffffffffffffffffffffffffffffffffffffffffffffffffff0382111561135557611354611489565b5b828201905092915050565b600061136b826113c6565b9150611376836113c6565b92508282101561138957611388611489565b5b828203905092915050565b600061139f826113a6565b9050919050565b600073ffffffffffffffffffffffffffffffffffffffff82169050919050565b6000819050919050565b600067ffffffffffffffff82169050919050565b82818337600083830152505050565b60005b838110156114115780820151818401526020810190506113f6565b83811115611420576000848401525b50505050565b6000600282049050600182168061143e57607f821691505b60208210811415611452576114516114b8565b5b50919050565b61146182611516565b810181811067ffffffffffffffff821117156114805761147f6114e7565b5b80604052505050565b7f4e487b7100000000000000000000000000000000000000000000000000000000600052601160045260246000fd5b7f4e487b7100000000000000000000000000000000000000000000000000000000600052602260045260246000fd5b7f4e487b7100000000000000000000000000000000000000000000000000000000600052604160045260246000fd5b6000601f19601f8301169050919050565b7f54686973206d656d62657220697320616c726561647920696e2061205472696260008201527f6521000000000000000000000000000000000000000000000000000000000000602082015250565b7f54686973206d656d626572206973206e6f7420696e2061205472696265210000600082015250565b7f596f7520616c7265616479206861766520616e20696e7374616e636500000000600082015250565b7f547269626520646f6573206e6f74206578697374000000000000000000000000600082015250565b7f596f7520646f206e6f74206861766520612054656e616e7420696e7374616e6360008201527f6500000000000000000000000000000000000000000000000000000000000000602082015250565b61164981611394565b811461165457600080fd5b50565b611660816113c6565b811461166b57600080fd5b5056fea26469706673582212201e9d19a4a9bbaed357428bdb2a30d033b6d401175744f43dc29eb574dcf5251664736f6c63430008040033",
  "linkReferences": {},
  "deployedLinkReferences": {}
}